:10FC000001C0C0C01F92CDB7DEB7112484B78823CE
:10FC100049F0982F9A70923029F081FF02C097EF37
:10FC200094BFE8D085E08093810082E08093C0009B
:10FC300088E18093C10086E08093C20080E18093D8
:10FC4000C4008EE0C2D03C9A84E028E13EEF91E00F
:10FC5000309385002093840096BBB09BFECF349AEE
:10FC6000A8958150A9F7812C912CA3D0813479F4E7
:10FC7000A0D08983B0D08981823811F482E005C098
:10FC8000813811F486E001C083E08CD078C08234E2
:10FC900011F484E103C0853419F485E0A4D06FC069
:10FCA000853549F486D0182F84D0812E912C982A3E
:10FCB000880C991C63C0863521F484E094D080E0E0
:10FCC000E4CF843609F039C074D0082F10E0102F2B
:10FCD00000276FD0082B6DD0B82E7801C12CDD2401
:10FCE000D39467D0F60181936F01F1E0EF1AF10828
:10FCF000C1F771D085E4B81201C0FFCF40E050E0F9
:10FD000063E0C4013FD0E12CF12CF701F395408171
:10FD10003196808150E0582B61E0C701880D991D14
:10FD200031D0E2E0EE0EF11C0E151F0571F740E038
:10FD300050E065E0C40126D022C0843791F439D068
:10FD4000082F10E0102F002734D0082B32D043D0DA
:10FD50007401F70185917F0125D001501109C9F780
:10FD60000EC0853739F437D08EE11CD086E91AD021
:10FD70008AE08BCF813511F488E027D02CD080E148
:10FD800011D073CFFC010A0167BFE895112407B6B3
:10FD900000FCFDCF667029F0452B19F481E187BF87
:10FDA000E89508959091C00095FFFCCF8093C60020
:10FDB00008958091C00087FFFCCF8091C00084FD32
:10FDC00001C0A8958091C6000895E0E6F0E098E1B2
:10FDD000908380830895EDDF803219F088E0F5DFAD
:10FDE000FFCF84E1DFCFCF93C82FE3DFC150E9F726
:10FDF000CF91F1CF282E80E0E8DFE0E0FF270994E3
:02FFFE000206F9
:040000030000FC00FD
:00000001FF
