:10FC000001C00BC1112484B7882361F0982F9A702A
:10FC1000923041F081FF02C097EF94BF282E80E020
:10FC2000E7D0EEC185E08093810082E08093C00040
:10FC300088E18093C10086E08093C20080E18093D8
:10FC4000C4008EE0D5D0209A86E020E33CEF91E01E
:10FC5000309385002093840096BBB09BFECF189A0A
:10FC6000A8954091C00047FD02C0815089F7FF244C
:10FC7000F39455E0E52E61E1D62EAED0813461F4E7
:10FC8000ABD0C82FBBD0C238E9F0C13811F488E03E
:10FC900001C083E09AD096C0823411F484E103C09D
:10FCA000853419F485E0B2D08DC0853539F494D00F
:10FCB000082F92D0182F000F111F83C0863521F412
:10FCC00084E0A4D080E0E6CF843609F048C084D038
:10FCD000C82FD0E0DC2FCC277FD0C82B7DD0C82EFA
:10FCE0005E01812C9924939477D0F40181934F0184
:10FCF000F1E0AF1AB108C1F781D085E4C81212C093
:10FD0000D3954801A12CBB24B394AC16BD0609F4CD
:10FD100059C0F50161915F01C40197D0FFEF8F1ABF
:10FD20009F0AF3CF83E0F80187BFE89507B600FC90
:10FD3000FDCFA0E0B1E0F8018D919D910C01F7BEDF
:10FD4000E8951124229732962097B1F7F801E7BE83
:10FD5000E89507B600FCFDCFD7BEE89533C08437E1
:10FD600019F53AD0C82FD0E0DC2FCC2735D05E0172
:10FD7000A82A32D0982E42D0E801F5E49F120BC099
:10FD8000CE015BD022D081E0A81AB1082196A1143F
:10FD9000B104B1F717C0FE018591EF0116D0E1E083
:10FDA000AE1AB108C1F70EC0853739F427D08EE1FD
:10FDB0000CD086E90AD08AE06DCF813511F488E055
:10FDC00017D01CD080E101D058CF9091C00095FF92
:10FDD000FCCF8093C60008958091C00087FFFCCFC0
:10FDE0008091C00084FD01C0A8958091C60008954F
:10FDF000E0E6F0E098E1908380830895EDDF8032C3
:10FE000019F088E0F5DFFFCF84E1DFCFCF93C82F73
:10FE1000E3DFC150E9F7CF91F1CFFC010A0167BFE1
:10FE2000E895112407B600FCFDCF667029F0452B3C
:10FE300019F481E187BFE8950895F999FECF92BD45
:10FE400081BDF89A992780B50895262FF999FECF9C
:10FE50001FBA92BD81BD20BD0FB6F894FA9AF99AE7
:10FE60000FBE0196089556657273696F6E3D382E08
:10FE700030004F505449424F4F545F435553544FF5
:10FE80004D5645523D30004465766963653D617469
:10FE90006D6567613634347000465F4350553D31BF
:10FEA000363030303030304C00424947424F4F54AA
:10FEB0003D31004275696C743A41756720203620E7
:10FEC000323031393A30393A30323A3039005541EE
:10FED00052543D3000424155445F524154453D31FA
:10FEE0003135323030004C45443D4230004C4544C1
:10FEF0005F53544152545F464C41534845533D3340
:01FF00000000
:02FFFE000008F9
:040000030000FC00FD
:00000001FF
