:020000021000EC
:10FC000001C01DC1112484B7882369F0982F9A7010
:10FC1000923049F081FF02C097EF94BF282E80E018
:10FC2000F9D00C94000085E08093810082E08093FD
:10FC3000C00088E18093C10086E08093C20080E12B
:10FC40008093C4008EE0E6D03C9A86E028E13EEF47
:10FC500091E0309385002093840096BBB09BFECF4B
:10FC6000349AA8954091C00047FD02C0815089F7A1
:10FC7000FF24F39441E1E42EC1D0813461F4BED07D
:10FC8000C82FCED0C23879F1C13811F488E001C054
:10FC900083E0ADD0A9C0823411F484E103C085347F
:10FCA00019F485E0C5D0A0C0853579F4A7D0082F18
:10FCB000A5D0182F87FF03C08BB7816002C08BB718
:10FCC0008E7F8BBF000F111F8EC0863581F496D0BA
:10FCD0008D3459F493D0CBB791D0C170880FC82B15
:10FCE000CBBF81E0A5D080E0D4CF83E0FBCF8436CA
:10FCF00009F047C083D0C82FD0E0DC2FCC277ED0BE
:10FD0000C82B7CD0982E6E01A12CBB24B39476D046
:10FD1000F50181935F01F1E0CF1AD108C1F780D0DE
:10FD200085E4981210C05E01B3946801C0E0D1E090
:10FD3000CA15DB0509F458C06991C60198D0FFEFD8
:10FD4000CF1ADF0AF5CF83E0F80187BFE89507B641
:10FD500000FCFDCFA0E0B1E0F8018D919D910C0178
:10FD6000F7BEE8951124229732962097B1F785E0E7
:10FD7000F80187BFE89507B600FCFDCFE7BEE89520
:10FD800033C0843719F53AD0C82FD0E0DC2FCC2708
:10FD900035D06E01C82A32D0B82E42D0E801F5E441
:10FDA000BF120BC0CE015BD022D081E0C81AD108AF
:10FDB0002196C114D104B1F717C0FE018791EF015C
:10FDC00016D0E1E0CE1AD108C1F70EC0853739F45C
:10FDD00027D08EE10CD087E90AD085E05ACF813553
:10FDE00011F488E017D01CD080E101D045CF90916C
:10FDF000C00095FFFCCF8093C60008958091C0009D
:10FE000087FFFCCF8091C00084FD01C0A895809140
:10FE1000C6000895E0E6F0E098E1908380830895BD
:10FE2000EDDF803219F088E0F5DFFFCF84E1DFCF2E
:10FE3000CF93C82FE3DFC150E9F7CF91F1CFFC0199
:10FE40000A0167BFE895112407B600FCFDCF667074
:10FE500029F0452B19F481E187BFE8950895F999B8
:10FE6000FECF92BD81BDF89A992780B50895262FBF
:10FE7000F999FECF1FBA92BD81BD20BD0FB6F8948F
:10FE8000FA9AF99A0FBE0196089556657273696FD2
:10FE90006E3D382E30004F505449424F4F545F430F
:10FEA0005553544F4D5645523D3000446576696375
:10FEB000653D61746D656761313238347000465F4D
:10FEC0004350553D383030303030304C0042494797
:10FED000424F4F543D31004275696C743A41756729
:10FEE00020203620323031393A31363A30303A3209
:10FEF0003700554152543D3000424155445F524114
:10FF000054453D3537363030004C45443D43340090
:10FF10004C45445F53544152545F464C415348450D
:04FF2000533D33001A
:02FFFE000008F9
:040000031000FC00ED
:00000001FF
